:100000000C9434000C9449000C9449000C94490061
:100010000C9449000C9449000C9449000C9449003C
:100020000C9449000C9449000C9449000C9449002C
:100030000C9449000C9449000C9449000C9449001C
:100040000C9449000C9449000C9449000C9449000C
:100050000C9449000C9449000C9449000C944900FC
:100060000C9449000C94490011241FBECFEFD8E036
:10007000DEBFCDBF11E0A0E0B1E0E6EFFAE002C0E4
:1000800005900D92AA31B107D9F70E94B5000C94E2
:1000900079050C940000ECE7F0E090819064908387
:1000A000AAE7B0E097E89C939081907E908390813E
:1000B0008770982B90838C9180648C93EAE7F0E0B2
:1000C000808184FFFDCFEAE7F0E08081806180835A
:1000D00080917800909179000895EFE7FEE33197E1
:1000E000F1F700C000008BB9289829982A9A8FE769
:1000F0009EE30197F1F700C000002A9808958FEF62
:100100008AB9209A219A229A88E30E946D008CE095
:100110000E946D0081E00E946D0086E00E946D00EB
:1001200080E80E946D000895EFE7FEE33197F1F754
:1001300000C000008BB9289A29982A9A8FE79EE37D
:100140000197F1F700C000002A980895CF93DF933C
:10015000EC018881882331F021960E9494008991D6
:100160008111FBCFDF91CF910895CF93DF93CDB76E
:10017000DEB760970FB6F894DEBF0FBECDBF0E940A
:100180007F000F2EF0E0EF2EF1E0FF2EF02D8E011C
:100190000F5F1F4F80E00E944B00BC0180E090E0A9
:1001A0000E94A60120E030EC4FE754E40E940501D4
:1001B00020E030E04AEF53E40E9434020E947701CD
:1001C0007F936F93FF92EF921F930F930E94A10270
:1001D00081E191E00E94A60080EC0E946D00C801C0
:1001E0000E94A6002FEF89E698E1215080409040C0
:1001F000E1F700C000000F900F900F900F900F904C
:100200000F9081E00E946D00C5CF0E9419010C94EF
:10021000FA010E94F30158F00E94EC0140F029F429
:100220005F3F29F00C94E30151110C942E020C94C1
:10023000E9010E940B0268F39923B1F3552391F36E
:10024000951B550BBB27AA2762177307840738F045
:100250009F5F5F4F220F331F441FAA1FA9F335D0A2
:100260000E2E3AF0E0E832D091505040E695001C56
:10027000CAF72BD0FE2F29D0660F771F881FBB1F10
:10028000261737074807AB07B0E809F0BB0B802DEE
:10029000BF01FF2793585F4F3AF09E3F510578F01A
:1002A0000C94E3010C942E025F3FE4F3983ED4F3E8
:1002B000869577956795B795F7959F5FC9F7880FEE
:1002C000911D9695879597F90895E1E0660F771F40
:1002D000881FBB1F621773078407BA0720F0621BD1
:1002E000730B840BBA0BEE1F88F7E09508950E94FC
:1002F000130288F09F5798F0B92F9927B751B0F0A3
:10030000E1F0660F771F881F991F1AF0BA95C9F799
:1003100014C0B13091F00E942D02B1E008950C9408
:100320002D02672F782F8827B85F39F0B93FCCF3BB
:10033000869577956795B395D9F73EF49095809516
:10034000709561957F4F8F4F9F4F0895E89409C036
:1003500097FB3EF490958095709561957F4F8F4FF8
:100360009F4F9923A9F0F92F96E9BB279395F6950E
:10037000879577956795B795F111F8CFFAF4BB0F8C
:1003800011F460FF1BC06F5F7F4F8F4F9F4F16C0F0
:10039000882311F096E911C0772321F09EE8872F7A
:1003A000762F05C0662371F096E8862F70E060E036
:1003B0002AF09A95660F771F881FDAF7880F9695AF
:1003C000879597F9089597F99F6780E870E060E056
:1003D00008959FEF80EC089500240A9416161706DE
:1003E00018060906089500240A9412161306140626
:1003F00005060895092E0394000C11F4882352F089
:10040000BB0F40F4BF2B11F460FF04C06F5F7F4F40
:100410008F4F9F4F089557FD9058440F551F59F027
:100420005F3F71F04795880F97FB991F61F09F3FE1
:1004300079F087950895121613061406551FF2CF0A
:100440004695F1DF08C0161617061806991FF1CF5A
:1004500086957105610508940895E894BB27662781
:100460007727CB0197F908950E9447020C94FA016F
:100470000E94EC0138F00E94F30120F0952311F066
:100480000C94E3010C94E90111240C942E020E94B7
:100490000B0270F3959FC1F3950F50E0551F629FBB
:1004A000F001729FBB27F00DB11D639FAA27F00DCD
:1004B000B11DAA1F649F6627B00DA11D661F829FF4
:1004C0002227B00DA11D621F739FB00DA11D621FD9
:1004D000839FA00D611D221F749F3327A00D611DF6
:1004E000231F849F600D211D822F762F6A2F1124D8
:1004F0009F5750409AF0F1F088234AF0EE0FFF1F0B
:10050000BB1F661F771F881F91505040A9F79E3F61
:10051000510580F00C94E3010C942E025F3FE4F34C
:10052000983ED4F3869577956795B795F795E795B7
:100530009F5FC1F7FE2B880F911D9695879597F9C0
:100540000895AEE0B0E0E7EAF2E00C9450050D89C2
:100550001E8986E08C831A8309838FEF9FE79E8331
:100560008D83AE01475E5F4F6F89788DCE01019616
:100570000E94C4022F813885F801E20FF31F108218
:100580002E96E4E00C946C05ACE0B0E0EAECF2E00E
:100590000C9442057C016B018A01FC0117821682D2
:1005A000838181FFBDC1CE0101964C01F70193818A
:1005B000F60193FD859193FF81916F01882309F4E2
:1005C000ABC1853239F493FD859193FF81916F0121
:1005D000853229F4B70190E00E94AC04E7CF512C9A
:1005E000312C20E02032A0F48B3269F030F48032DC
:1005F00059F0833269F420612CC08D3239F0803398
:1006000039F4216026C02260246023C0286021C004
:1006100027FD27C030ED380F3A3078F426FF06C0AA
:10062000FAE05F9E300D1124532E13C08AE0389EED
:10063000300D1124332E20620CC08E3221F426FDA1
:100640006BC1206406C08C3611F4206802C0883665
:1006500041F4F60193FD859193FF81916F01811122
:10066000C1CF982F9F7D9554933028F40C5F1F4F76
:10067000FFE3F9830DC0833631F0833771F08335A2
:1006800009F05BC022C0F801808189830E5F1F4F93
:1006900044244394512C540115C03801F2E06F0EEC
:1006A000711CF801A080B18026FF03C0652D70E0A9
:1006B00002C06FEF7FEFC5012C870E94A1042C01BF
:1006C00083012C852F77222E17C03801F2E06F0EA0
:1006D000711CF801A080B18026FF03C0652D70E079
:1006E00002C06FEF7FEFC5012C870E9496042C019A
:1006F0002C852068222E830123FC1BC0832D90E0D3
:1007000048165906B0F4B70180E290E00E94AC04AC
:100710003A94F4CFF50127FC859127FE81915F0182
:10072000B70190E00E94AC0431103A94F1E04F1A06
:1007300051084114510471F7E5C0843611F089362F
:1007400039F5F80127FF07C06081718182819381AB
:100750000C5F1F4F08C060817181072E000C880B51
:10076000990B0E5F1F4F2F76722E97FF09C0909541
:100770008095709561957F4F8F4F9F4F2068722EA7
:100780002AE030E0A4010E94E404A82EA81844C086
:10079000853729F42F7EB22E2AE030E025C0F22FD3
:1007A000F97FBF2E8F36C1F018F4883579F0B4C0C8
:1007B000803719F0883721F0AFC02F2F2061B22E7B
:1007C000B4FE0DC08B2D8460B82E09C024FF0AC072
:1007D0009F2F9660B92E06C028E030E005C020E1CA
:1007E00030E002C020E132E0F801B7FE07C06081CE
:1007F0007181828193810C5F1F4F06C0608171817E
:1008000080E090E00E5F1F4FA4010E94E404A82E38
:10081000A818FB2DFF777F2E76FE0BC0372D3E7F6D
:10082000A51450F474FE0AC072FC08C0372D3E7E39
:1008300005C0BA2C372D03C0BA2C01C0B52C34FF2B
:100840000DC0FE01EA0DF11D8081803311F4397E67
:1008500009C032FF06C0B394B39404C0832F8678D6
:1008600009F0B39433FD13C030FF06C05A2CB31403
:1008700018F4530C5B18B32CB31468F4B70180E27E
:1008800090E03C870E94AC04B3943C85F5CFB31450
:1008900010F43B1801C0312C34FF12C0B70180E3C3
:1008A00090E03C870E94AC043C8532FF17C031FDCC
:1008B00003C088E790E002C088E590E0B7010CC073
:1008C000832F867859F031FF02C08BE201C080E2AD
:1008D00037FD8DE2B70190E00E94AC04A51438F416
:1008E000B70180E390E00E94AC045A94F7CFAA9439
:1008F000F401EA0DF11D8081B70190E00E94AC0483
:10090000A110F5CF332009F451CEB70180E290E079
:100910000E94AC043A94F6CFF7018681978102C019
:100920008FEF9FEF2C96E2E10C945E05FC010590A1
:10093000615070400110D8F7809590958E0F9F1FE1
:100940000895FC016150704001900110D8F7809526
:1009500090958E0F9F1F08950F931F93CF93DF9352
:10096000FB01238121FD03C08FEF9FEF28C022FFF1
:1009700016C046815781248135814217530744F4BC
:10098000A081B1819D012F5F3F4F318320838C93E4
:10099000268137812F5F3F4F3783268310C0EB01BD
:1009A000092F182F0084F185E02D0995892BE1F698
:1009B0008E819F8101969F838E83812F902FDF915F
:1009C000CF911F910F910895FA01AA27283051F174
:1009D000203181F1E8946F936E7F6E5F7F4F8F4F70
:1009E0009F4FAF4FB1E03ED0B4E03CD0670F781FCF
:1009F000891F9A1FA11D680F791F8A1F911DA11DB4
:100A00006A0F711D811D911DA11D20D009F46894EC
:100A10003F912AE0269F11243019305D3193DEF694
:100A2000CF010895462F4770405D4193B3E00FD04A
:100A3000C9F7F6CF462F4F70405D4A3318F0495D35
:100A400031FD4052419302D0A9F7EACFB4E0A69518
:100A50009795879577956795BA95C9F7009761053A
:100A6000710508959B01AC010A2E06945795479590
:100A700037952795BA95C9F7620F731F841F951F85
:100A8000A01D08952F923F924F925F926F927F9296
:100A90008F929F92AF92BF92CF92DF92EF92FF928E
:100AA0000F931F93CF93DF93CDB7DEB7CA1BDB0B3A
:100AB0000FB6F894DEBF0FBECDBF09942A883988DF
:100AC00048885F846E847D848C849B84AA84B984E6
:100AD000C884DF80EE80FD800C811B81AA81B981F2
:100AE000CE0FD11D0FB6F894DEBF0FBECDBFED0106
:060AF0000895F894FFCF09
:100AF60054656D7065726174757265203A2025645F
:0A0B0600004144432054657374005D
:00000001FF
