S00C0000554152542E73726563DC
S11300000C9434000C9449000C9449000C9449005D
S11300100C9449000C9449000C9449000C94490038
S11300200C9449000C9449000C9449000C94490028
S11300300C9449000C9449000C9449000C94490018
S11300400C9449000C9449000C9449000C94490008
S11300500C9449000C9449000C9449000C944900F8
S11300600C9449000C94490011241FBECFEFD8E032
S1130070DEBFCDBF11E0A0E0B1E0E0EAF1E002C0F4
S113008005900D92A031B107D9F70E9480000C941D
S1130090CE000C9400009C0140E050E060E472E467
S11300A08FE090E00E948D00215031093093C5000B
S11300B02093C40088E98093C10086E08093C20045
S11300C00895E0ECF0E0908195FFFDCF8093C600A9
S11300D00895E0ECF0E080818823ECF78091C6007D
S11300E00895CF93DF93EC018881882331F0219622
S11300F00E94610089918111FBCFDF91CF91089516
S113010080E895E20E944B0080E091E00E9471003B
S11301100E9469000E946100FBCF052E97FB1EF42C
S113012000940E94A40057FD07D00E94AC0007FC75
S113013003D04EF40C94A40050954095309521952D
S11301403F4F4F4F5F4F08959095809570956195FF
S11301507F4F8F4F9F4F0895A1E21A2EAA1BBB1BFE
S1130160FD010DC0AA1FBB1FEE1FFF1FA217B3077F
S1130170E407F50720F0A21BB30BE40BF50B661F95
S1130180771F881F991F1A9469F760957095809559
S113019090959B01AC01BD01CF010895F894FFCF68
S11301A048656C6C6F20576F726C64200D0A0000F8
S9030000FC
