S01000004443204D6F746F722E737265635C
S11300000C9434000C943E000C943E000C943E007E
S11300100C943E000C943E000C943E000C943E0064
S11300200C943E000C943E000C943E000C943E0054
S11300300C943E000C943E000C943E000C943E0044
S11300400C943E000C943E000C943E000C943E0034
S11300500C943E000C943E000C943E000C943E0024
S11300600C943E000C943E0011241FBECFEFD8E048
S1130070DEBFCDBF0E944C000C947B000C940000AA
S1130080579A569A08955E9A5F9808955E985F9A73
S113009008955E985F9808950E9440000E9443006E
S11300A02FEF8BE792E9215080409040E1F700C0A8
S11300B000000E9449002FEF83ED90E3215080401F
S11300C09040E1F700C000000E9446002FEF8BE74C
S11300D092E9215080409040E1F700C000000E9466
S11300E049002FEF83ED90E3215080409040E1F7E9
S10D00F000C00000D3CFF894FFCF46
S9030000FC
