S00F00004C4344313678322E7372656331
S11300000C9434000C9449000C9449000C9449005D
S11300100C9449000C9449000C9449000C94490038
S11300200C9449000C9449000C9449000C94490028
S11300300C9449000C9449000C9449000C94490018
S11300400C9449000C9449000C9449000C94490008
S11300500C9449000C9449000C9449000C944900F8
S11300600C9449000C94490011241FBECFEFD8E032
S1130070DEBFCDBF11E0A0E0B1E0E8E3F1E002C0F3
S113008005900D92A031B107D9F70E9493000C940A
S11300909A000C940000EFE7FEE33197F1F700C0FB
S11300A000008BB9289829982A9A8FE79EE3019734
S11300B0F1F700C000002A9808958FEF8AB9209ABA
S11300C0219A229A88E30E944B008CE00E944B0004
S11300D081E00E944B0086E00E944B0080E80E9471
S11300E04B000895EFE7FEE33197F1F700C00000FD
S11300F08BB9289A29982A9A8FE79EE30197F1F7FA
S113010000C000002A980895CF93DF93EC01888102
S1130110882331F021960E94720089918111FBCFCE
S1130120DF91CF9108950E945D0080E091E00E94EC
S10B01308400FFCFF894FFCF17
S113013848656C6C6F20576F726420212121000080
S9030000FC
